:020000040000FA
:10000000C0250020150400001D0400001F0400008E
:10001000210400002304000025040000000000006B
:1000200000000000000000000000000027040000A5
:1000300029040000000000002B0400002D04000033
:100040002F0400002F040000050D0000590A0000D5
:100050002F0400002F040000F50800002F0400000A
:100060002F0400002F0400002F0400002F040000C4
:100070002F0400002F0400002F0400002F040000B4
:100080002F0400002F0400002F0400002F040000A4
:100090002F0400002F0400002F0400002F04000094
:1000A0002F0400002F0400002F0400002F04000084
:1000B0002F0400002F0400000000000000000000DA
:1000C0002F0400002F0400002F0400002F04000064
:1000D0002F0400002F0400002F0400000000000087
:1000E0000000000000000000000000000000000010
:1000F0000000000000000000000000000000000000
:1001000000000000000000000000000000000000EF
:1001100000000000000000000000000000000000DF
:10040000DFF80CD000F064FA004800472119000022
:10041000C02500200648804706480047FEE7FEE763
:10042000FEE7FEE7FEE7FEE7FEE7FEE7FEE7FEE7A4
:10043000690A00000104000000487047783000009D
:1004400040EA01039B0703D009E008C9121F08C056
:10045000042AFAD203E011F8013B00F8013B521ED6
:10046000F9D27047421C10F8011B0029FBD1801AF9
:1004700070472DE9FE4F804681EA0300C00F0C460D
:10048000009021F0004123F00045B8EB0200A941A3
:1004900005D24046214690461C460B46024623F0B4
:1004A0000040104347D0270DC7F30A00C3F30A5199
:1004B0000290401A019040286BDAC3F3130040F415
:1004C000801B0098924620B10023D2EB030A63EB15
:1004D0000B0B01985946C0F14002504600F069F9F3
:1004E00006460D4650465946019A00F081F910EB38
:1004F00008006141002487EA115284EAE7731A4335
:1005000040D0009A62B3019A012A4FEA075215DCE3
:10051000001B61EB02014FF0004202EA0752CDE9F5
:100520000042001C41F5801132462B4600F081F953
:1005300003B0BDE8F08F40462146F9E7001B61EBB0
:100540000201001C41F5801300185B412018A2F540
:10055000001747EB030140EAD570B6196D4111E071
:100560006D084FEA360645EAC0754FEA0752001B90
:1005700061EB0201001C41F5801149084FEA30008F
:100580000019514132462B4603B0BDE8F04F00F050
:1005900041B90098012240000023D0EB020263EB36
:1005A000E073009821464FEAE074B8EB000061EB7D
:1005B0000401E9E783F000435BE781F0004158E77D
:1005C0002DE9FE4F81EA030404F0004421F00041CC
:1005D00000944FF0000B23F0004350EA01045ED07A
:1005E00052EA03045BD0C3F30A54C1F30A552C4406
:1005F000A4F2F3340194A0FB0254C1F3130141F4BB
:100600008011C3F3130343F4801301FB024400FB86
:10061000034E840A970A44EA815447EA8357A4FBAD
:10062000076802958D0A05FB07854FEA932C04FBAA
:100630000C542705029D4FEA065847EA1637B5EBDA
:1006400008056EEB070C870E920E47EA811742EA07
:100650008312A7FB0201B6EB0B0164EB00042B0D28
:1006600043EA0C335E1844EB1C50DA465146E7FB74
:100670000201C5F313044FEA0B3343EA14534FEA64
:100680000432019C43EA0603A4F10C040294009C8A
:10069000CDE900B400F0CDF803B0BDE8F08F002044
:1006A0000146F9E70EB5C10F80EAE0700844CA07B9
:1006B000002140F233438DE80E000A460B4600F05D
:1006C000B8F803B000BD0EB540F2334102910021ED
:1006D000CDE900110A460B4600F0ABF803B000BDAF
:1006E00070B5C1F30A5201F000450024C1F31301B3
:1006F00040F2FF3341F480119A4201DA002070BDCC
:1007000040F233439A42A2F2334203DC524200F0F9
:100710005FF800E090402C43F1D0404270BD0000F3
:1007200030B5041E71F1000404DB4FF00044404278
:1007300064EB0101141E73F1000405DB1C464FF04D
:100740000043524263EB0403994208BF904230BD1C
:100750002DE9F05F0546002092469B4688460646F6
:10076000814640241BE0284641464746224600F089
:100770002FF853465A46C01A914110D311461846D5
:10078000224600F016F82D1A67EB01084F46224664
:100790000120002100F00DF817EB00094E41201E4A
:1007A000A4F10104DFDC484631462A464346BDE851
:1007B000F09F202A04DB203A00FA02F10020704763
:1007C0009140C2F1200320FA03F31943904070478F
:1007D000202A04DB203A21FA02F00021704721FA96
:1007E00002F3D040C2F120029140084319467047FD
:1007F000202A06DBCB17203A41FA02F043EAE073E5
:1008000006E041FA02F3D040C2F1200291400843D1
:100810001946704710B5141E73F1000408DA401C25
:1008200041F1000192185B411A4301D120F001000F
:1008300010BD2DE9F04D92469B4611B1B1FA81F2FF
:1008400002E0B0FA80F220329046FFF7B2FF044691
:100850000F4640EA0A0041EA0B0153465A46084354
:1008600013D0114653EA010019D0C8F14002504696
:10087000FFF7AEFF05460E46504659464246FFF783
:1008800098FF084305D0012004E020463946BDE822
:10089000F08D0020054346EAE0762C4337430A9862
:1008A0006305E40AA0EB08000022FD0A44EA47546D
:1008B0000A3002D500200146E9E701051019694117
:1008C000DDE9084500196941BDE8F04DA2E70000E7
:1008D000064C074D06E0E06840F0010394E807008D
:1008E00098471034AC42F6D3FFF78EFD88300000F5
:1008F000A83000002DE9F04700268AB0DFF85091BB
:10090000B0464FF48075012437460596284601F01D
:1009100037FC38B1D9F80403204203D0284601F04F
:1009200025FC26432D1D64007F1CADB2082FEDD39E
:100930004FF4BE74204601F023FC48B1204601F07C
:1009400015FC46F0004605AA0121002001F0FAFB43
:10095000404D16F0FF0F15D00127002437420DD06F
:1009600009EB8401D1F81005D1F81015C0F304206B
:1009700055F82420C1F3014102B190477F00641C67
:10098000082CEBD3002E3DDA4FF0FF304FF0010979
:10099000CDF82080069095F84460002770B226F0CC
:1009A000C004401C2ED006A9204601F02FF80028D4
:1009B00028D04FEA9618204600F0AAFE55F820608D
:1009C0001EB1B8F1030F03D00CE0B8F1030F19D139
:1009D00008A8E10804F00702435C09FA02FC43EAB4
:1009E0000C0343544FF0A04000EB8400D0F8000704
:1009F00005A9C0F3014A204601F008F828B1BAF170
:100A0000020F05D00AB0BDE8F087BAF1030FF9D1A3
:100A1000B8F1030F07D1BAF1020F17D00221204617
:100A200001F078FB012716B141462046B047002F60
:100A3000E8D06A460121002001F084FB0599009866
:100A40008842DFD0059008980690A4E70321E6E7E6
:100A500000600040600000200149024800F0B8BE7C
:100A60001800002000300040F0B598480023021D17
:100A700001780125101D4FF08056062907D1147802
:100A8000240704D10478C4F30314032C02D00629EC
:100A900004D00FE08F4F8E4C7C670EE01478240753
:100AA00008D10478C4F30314032C06D0042C04D01A
:100AB000052C02D0062907D00EE0D6F84442864F16
:100AC000C4F342343C6002E01478240704D1047873
:100AD000C4F30314032C02D0062906D011E07F4C86
:100AE000276827F0807727600EE01478240708D164
:100AF0000478C4F30314032C06D0042C04D0052C72
:100B000002D006290AD011E04FF08044C4F80C311D
:100B1000C4F81031704C241F236002E014782407BD
:100B200004D10478C4F30314032C02D0062905D0A1
:100B30000CE0694F032464373C600AE01478240712
:100B400004D10478C4F30314032C02D006290DD079
:100B500014E0634F05243C60614C78342560604CA0
:100B6000083423603F243F1D3C6002E014782407D2
:100B700004D10478C4F30314052C02D0062957D0FD
:100B800068E058490968584A11605649091D0968C2
:100B9000121D1160534908310968121D1160514935
:100BA0000C310968121D11604E4910310968121D7F
:100BB00011604C4914310968121D116049491831FE
:100BC0000968494A2032116046491C310968121DE2
:100BD0001160444920310968121D116041492431D6
:100BE0000968121D11603F4928310968121D116002
:100BF0003C492C310968121D11603A4930310968AD
:100C0000394A40321160374934310968121D116088
:100C1000344938310968121D116032493C31096884
:100C2000121D11602F4940310968121D116002E048
:100C3000117809070ED10078C0F30310032803D000
:100C4000042801D0052805D1D6F85802274900F01C
:100C50004F00086021487438016841F47001016058
:100C6000BFF34F8FBFF36F8F4FF01021D1F8000209
:100C7000002803DBD1F80402002822DA1C4A1560A0
:100C80001C480468002CFCD01524C1F800420568FB
:100C9000002DFCD0C1F8044201680029FCD013608B
:100CA00001680029FCD0BFF34F8F0C48F038016871
:100CB000114A01F4E06111430160BFF34F8F00BF9F
:100CC000FDE70F490D480860F0BD0000E00F00F09F
:100CD0000DF0ADBA00C007403C050040FCED00E05F
:100CE000105600400404001020C50040E40E0040EF
:100CF00004E5014000E401400400FA050090D0033F
:100D0000140000200448017F04480029024901D052
:100D100002F0BFB802F02EB84000002000200040D2
:100D20000FB41CB50246002007AC00290BD0491EA9
:100D3000CDE90021054B6A462146069800F018F8D7
:100D4000009A002111701CBC5DF814FBD311000047
:100D500002E008C8121F08C1002AFAD17047704784
:100D6000002001E001C1121F002AFBD170470000E2
:100D70002DE9FF4F8DB00F460546002606E02528D9
:100D80000BD0DDE90F1290476D1C761C28780028E7
:100D9000F5D111B03046BDE8F08F0024A246A1463F
:100DA0000122EC4900E0044315F8013F203B02FA20
:100DB00003F00842F7D128782A2810D06FF02F02CC
:100DC0002878A0F13001092914D80AEB8A0102EB36
:100DD000410144F0020400EB010A6D1CF0E701CF71
:100DE0005FEA000A03D544F40054CAF1000A44F053
:100DF00002046D1C28782E2817D115F8010F44F035
:100E000004042A280ED06FF02F022878A0F13001B8
:100E100009290AD809EB890102EB410100EB01091C
:100E20006D1CF2E757F8049B6D1C28786C280FD0D6
:100E300006DC4C2817D068280DD06A2814D104E0AD
:100E4000742810D07A280FD10DE044F400140AE081
:100E500044F4801401E044F440146978814202D1E2
:100E600004F580146D1C6D1C2A786E2A1FD00CDCD2
:100E7000632A31D004DC002A8BD0582A11D1A3E098
:100E8000642A68D0692A0CD165E0732A2ED004DC6C
:100E90006F2A73D0702A04D19BE0752A6FD0782A0C
:100EA0006ED01046DDE90F129047761C50E1C4F376
:100EB0000250022806D0032809D0042801CF09D007
:100EC000066045E101CFF117C0E9006140E101CFC3
:100ED00006803DE106703BE117F8040B8DF8000039
:100EE00000208DF80100EB46012003E057F804BB19
:100EF0004FF0FF3061074FF0000102D40DE008F120
:100F00000101884649450FDA8045F8DB1BF80810D7
:100F10000029F4D108E008F1010188468142FADB9A
:100F20001BF808100029F6D1DDE90F23AAEB080011
:100F30008146214600F036F9304400EB080604E013
:100F4000DDE90F121BF8010B9047B8F10108F7D249
:100F500021464846F7E00A21C4F302534FF0000B44
:100F60000891022B04D001CFC117032B09D00AE04E
:100F7000FF1D27F00707F7E8020108E032E01FE055
:100F800020E000B2C117042B01D140B2C117031EEB
:100F900071F1000307DA4FF0000CD0EB0C006CEBA2
:100FA00001012D2302E0230504D52B238DF82430E5
:100FB000012303E0E30701D02023F7E7984658E038
:100FC0000A2110E010210EE010204FF0000B0890D5
:100FD0000CE010214FF0000B44F004044FF008091E
:100FE000089103E008214FF0000B0891C4F302536D
:100FF000022B04D001CF0021032B06D006E0FF1DF9
:1010000027F00707F7E8020103E080B2042B00D1C4
:10101000C0B24FF0000823072BD5702A07D0DDF8A7
:1010200020C08CF0100C5CEA0B0C05D00EE04023C5
:101030008DF82430012308E050EA010306D0302364
:101040008DF824308DF8252002239846DDF820C045
:101050008CF0080C5CEA0B0C0BD150EA010301D1B7
:10106000630706D530238DF824304FF00108A9F12D
:101070000109582A04D038A20B9208AA0A920BE060
:101080003AA2F9E75B46089AFFF762FB0B9B9B5C71
:101090000A9A521E0A92137050EA0102F2D10A987B
:1010A000ADEB000000F1200B600702D524F4803482
:1010B00001E04FF00109D94502DDA9EB0B0000E08A
:1010C000002000EB0B0141440890AAEB010AE00369
:1010D00006D4DDE90F232146504600F063F80644AC
:1010E0004FF0000908E009A911F80900DDE90F1225
:1010F000904709F10109761CC145F4DBE0030CD5EA
:10110000DDE90F232146504600F04CF8064404E088
:10111000DDE90F1230209047761C0899481E089090
:101120000029F5DC08E00A980A990078491C0A9120
:10113000DDE90F129047761CBBF10001ABF1010B0A
:10114000F1DC21465046DDE90F2300F019F8064492
:101150006D1C1BE609280100303132333435363737
:1011600038396162636465660000000030313233F3
:101170003435363738394142434445460000000093
:101180002DE9F041044600251E461746880404D484
:1011900005E039462020B0476D1C641EF9D528466D
:1011A000BDE8F0812DE9F041044600251E46904639
:1011B000C80301D5302700E02027880404D505E0C6
:1011C00041463846B0476D1C641EF9D52846BDE837
:1011D000F0814A68002A06D00A68531C0B60107020
:1011E0004868401E486070477FB57CA001240068B5
:1011F00002901E25022302AA1C210094784800F0C8
:1012000035FE08B100F090F91D208DF808008DF82A
:101210000950022302AA1C217148009400F026FE06
:1012200008B100F081F9012302AA1C216C48009446
:1012300000F01CFE012301AA1C21694800F004FEF5
:1012400018B99DF804201E2A09D066A1032001F0D8
:10125000A7F900BF01F002F90028FBD108E06CA15A
:10126000032001F0C3F900BF01F0F8F80028FBD11A
:101270001F208DF8080008208DF80900022302AA1B
:101280001C215748009400F0F1FD08B100F04CF922
:10129000012302AA1C215248009400F0E7FD01231B
:1012A00001AA1C214E4800F0CFFD18B99DF804009A
:1012B000082807D05DA1032001F072F901F0CEF8F3
:1012C0000028FBD120258DF808502A268DF80960CA
:1012D000022302AA1C214248009400F0C7FD08B175
:1012E00000F022F9012302AA1C213D48009400F0DD
:1012F000BDFD012301AA1C21394800F0A5FD18B944
:101300009DF804002A2807D052A1032001F048F9D3
:1013100001F0A4F80028FBD12D208DF808008DF8ED
:101320000950022302AA1C212D48009400F09EFDC2
:1013300008B100F0F9F8012302AA1C212848009402
:1013400000F094FD012301AA1C21254800F07CFD3A
:1013500018B99DF80400202808D049A1032001F005
:101360001FF900BF01F07AF80028FBD12E208DF87C
:10137000080000208DF80900022302AA1C21184849
:10138000009400F073FD08B100F0CEF8012302AA2A
:101390001C211348009400F069FD012301AA1C21BF
:1013A0000F4800F051FD9DF80410084308D03FA1FC
:1013B000032001F0F5F800BF01F050F80028FBD140
:1013C0008DF8086019208DF80900022302AA1C215B
:1013D0000348009400F04AFD7FBD00002A18000079
:1013E000882F00004150503A494E464F3A6572727C
:1013F0006F7220636F6E66696775726174696E677C
:101400002046465F4D545F4346470D0A00000000EA
:101410004150503A494E464F3A46465F4D545F431D
:1014200046473A20307825780D0A00004150503A5E
:10143000494E464F3A6572726F7220636F6E6669ED
:101440006775726174696E672046465F4D545F54DC
:10145000480D0A004150503A494E464F3A65727263
:101460006F7220636F6E66696775726174696E670B
:101470002046465F4D545F434F554E540D0A0000C1
:101480004150503A494E464F3A6572726F7220632E
:101490006F6E66696775726174696E6720434E543A
:1014A0004C5F524547340D0A000000004150503A4D
:1014B000494E464F3A6572726F7220636F6E66696D
:1014C0006775726174696E6720434E544C5F524574
:1014D00047350D0A000000000BA1012001F060F863
:1014E00000F0B8FF00F0BAFF0028FBD1BFF34F8F28
:1014F0000B4801680B4A01F4E06111430160BFF33E
:101500004F8F00BFFDE700004150505F4552524FE2
:10151000523A4552524F523A466174616C0D0A007C
:101520000CED00E00400FA050EB500210091CDE9B4
:1015300001106A4644F20100FFF7CEFF0EBD00F035
:1015400003B800F009B8000072B602480168491CEF
:10155000016070470000002003490868401E0860D1
:1015600000D162B670470000000000202DE9F04174
:10157000064608680C46411C4FF0A0474FF0010595
:1015800006D005FA00F1C7F80815206800F0B8FD8C
:101590006068411C02D0002100F0A9FD307920498B
:1015A00001EB4010A169007F00283068C0F82415C5
:1015B00025D0607D227D31681043C1F86C05D4E9E7
:1015C00000123068C0F80C15C0F8142524E0A0689B
:1015D000411C02D0002100F08AFDE068411C05D0CA
:1015E0008540C7F80855E06800F08AFDD4E902128A
:1015F0003068C0F80825C0F81015BDE8F081607D9E
:10160000217D32680843C2F86C05D4E900123068C5
:10161000C0F81425C0F80C15207D0128D7D0ECE7C0
:1016200040000020002901DA0020704702681144C0
:10163000016001207047000070B5461C0D46012472
:101640000020FFF77CFF114A10682860D2E90010E3
:101650009568081A2B1A701C5B1C98420FD963B14D
:101660000B480C4B294000681B6802EB810163F3B7
:101670009F20C8601068401C1060002401E0881999
:1016800010600020FFF75DFF204670BDA80100201C
:10169000D02F000010000020034803C8814201D170
:1016A0000120704700207047A801002005494FF035
:1016B000FF32082841F8202002D3084480F83C205B
:1016C0007047000060000020F0B54FF0FF3512B108
:1016D0000023082601E0082309260C4C05E000BF82
:1016E00054F823707F1C04D05B1CB342F8D3284607
:1016F000F0BD26185DB286F8245044F82310002A65
:10170000F5D1E11881F83C00F1E70000600000200D
:101710000249084490F9240070470000600000204E
:1017200010B5112000F0C6FA04A1032000F038FF24
:1017300000F094FE0028FBD110BD00004150503A4B
:10174000494E464F3A6D6F74696F6E2064657465DB
:10175000637465640D0A000070B50E460446007996
:1017600018494FF4A27501EB4010017F2068A1B128
:101770004FF4887100F0D5FF4FF49071206800F0AD
:10178000D0FF4FF49271206800F0CBFF294620680B
:1017900000F0C7FF0C49206809E04FF48E7100F09B
:1017A000AFFF2946206800F0ABFF08492068C0F869
:1017B0000413206800F09FF93146BDE8704000F046
:1017C0007EB90000400000201003020080000200EB
:1017D0002DE9FF470D464FF492770446394600F055
:1017E0007FFF4FF002094FF001084FF4827640B1BD
:1017F0003946204600F079FF3146204600F070FF60
:10180000B0B3B2463146204600F06AFF4FF0FF36D3
:10181000002770B35146204600F067FF05F10C0029
:1018200001AB07C883E8070095F8230078B1287B4F
:1018300001282DD0D4F84C05C0B28DF80600287BC5
:10184000022828D0D4F84C05C0B28DF807004FF418
:10185000B071204600F049FF4FF4AE71204600F011
:1018600044FF95F8250080B395F8230068BB3CE061
:1018700000E013E0A868C4F80803C5F80890A86859
:10188000C4F80403C4F82080C4F81480BDE8FF87BE
:10189000D4F83C05D0E7D4F83C05D5E74FF4A47163
:1018A000204600F022FF287B80B14FF40070C4F87E
:1018B0000002801CA860C4F80863A868C4F8040388
:1018C000C4F80880C4F82080E0E708E005F10C00C7
:1018D00001AB07C883E8070095F8250028B9002068
:1018E000C4F80002AF60C4F80863D4F8C404C4F8B4
:1018F000C404810702D58DF8008006E0400702D5B8
:101900008DF8009001E08DF8007095F8250008B979
:1019100085F82470D5E9002168469047B6E70000B5
:101920001FB5002000F0CAFE08B1FFF7FDFD01F071
:10193000C5F800F093FFFFF757FC00F041F80C20CA
:101940008DF808001E208DF80C000124012302AA46
:101950001C211348009400F089FA012301AA1C21DC
:101960000F4800F071FA9DF804002028EED11120F4
:1019700000F0A0F90BA1032000F012FE00F06EFDB4
:101980000028FBD1012303AA1C210548009400F084
:101990006DFA012301AA1C21014800F055FAD5E790
:1019A000882F00004150503A494E464F3A6D6F74AF
:1019B000696F6E2064657465637465640D0A000068
:1019C0001CB500F049F908B1FFF7AEFD0020019009
:1019D00001A9112000F076F908B1FFF7A5FD09482B
:1019E000094A69460068009003208DF8010016201E
:1019F00000F0D6F808B1FFF797FD0121162000F09E
:101A00007DF81CBD842F000021170000C20800F0E3
:101A100007030120895C98400840704700283ED0A9
:101A20001F49204A096800BF00BF00BF00BF00BFB8
:101A300000BF00BF00BF91422FD000BF00BF00BF5A
:101A400000BF00BF00BF00BF00BF00BF00BF00BF9E
:101A500000BF00BF00BF00BF00BF00BF00BF00BF8E
:101A600000BF00BF00BF00BF00BF00BF00BF00BF7E
:101A700000BF00BF00BF00BF00BF00BF00BF00BF6E
:101A800000BF00BF00BF00BF00BF00BF00BF00BF5E
:101A900000BF00BF00BF00BF00BF0138C3D1704707
:101AA000140000200024F40000F01F0201219140E6
:101AB0004009800000F1E020C0F88011704749071C
:101AC000090E002806DA00F00F0202F1E02282F887
:101AD000141D03E000F1E02282F8001400F01F0260
:101AE000012191404009800000F1E020C0F88012FF
:101AF000C0F800117047000B40B270472DE9F0416B
:101B00008846054600F014FE234E002828461AD0C9
:101B1000FFF7FEFD304490F83C008009032802D016
:101B200001280ED007E04FF0A040D0F81005E840A3
:101B300010F0010F05D003212846BDE8F04100F068
:101B4000E9BA0221F8E700F0FFFD002822D028467C
:101B5000FFF7DEFD04464FF4807000EB84000F4F6A
:101B600081B207EB8400D0F8102542F00102C0F8E2
:101B70001025084600F0FAFAB8F1000F0AD02846FE
:101B8000FFF7C6FD56F82000002803D00120A04032
:101B9000C7F80403BDE8F081600000200060004049
:101BA0002DE9FC41DFF8A480044608EB040000277F
:101BB00090F924001346C0170E46401C01D0082798
:101BC00041E0F27819462046FFF77EFD0546401CAD
:101BD00038D0B07850B14FF0A04000EB8400D0F87E
:101BE000001721F00201C0F8001707E00021737808
:101BF000204600910A46019100F05EFAF078C0B1EB
:101C00001348317800EB8500D0F81025114B1A40AD
:101C1000C0F810254FF4F8524FF4403302EA042282
:101C200003EA01410A43D0F810150A43C0F8102511
:101C300009E008EB0500327810F83C1F41EA8211F8
:101C4000017000E004273846BDE8FC8160000020F8
:101C500000600040FFE0FCFF70B5144D95F84500B2
:101C600008B1082070BD0020411E2A18401CC0B2D7
:101C700082F824102028F8D300242046FFF716FD10
:101C8000641CE4B2092CF8D307210620FFF717FFE4
:101C90004FF4BE7000F06AFA05494FF00040C1F8F9
:101CA0000403012085F84500002070BD600000207D
:101CB000006000404FF0A04201218140C2F80C15A5
:101CC000704700002DE9FC41044629480F46204496
:101CD000002590F92410491C01D0082541E0B9786D
:101CE000002651B3012200212046FFF7EDFC411CE4
:101CF00021D083001F483A7818447978D0F81035FD
:101D0000DFF874C003EA0C03C0F81035D0F81035C2
:101D10004FF4F85C0CEA042C43EA0C034FF4403C0B
:101D20000CEA02424FF4801C0CEA01510A431343AF
:101D3000C0F8103504E0042513E0FE2180F82410DB
:101D40007A780120A0404FF0A041012A0CD0C1F8C0
:101D50000C0501222046009600231146019600F052
:101D6000ABF92846BDE8FC81C1F80805F1E70000A1
:101D70006000002000600040FFE0ECFF0121B1EBBB
:101D8000507F01D101207047002070470121B1EB45
:101D9000507F01D101207047002070470179064A29
:101DA00001EB8101006802EBC1010622C0F80025A9
:101DB000022081F8220070471800002070B5064606
:101DC0000D4600791F4900EB800001EBC00494F838
:101DD000220008B1082070BD0020C4E90023A060E3
:101DE00084F8250084F82400A87B84F82700687B09
:101DF00010B1284600F00CFE296840F20C60890002
:101E000001F1A041C1F800076968890001F1A04112
:101E1000C1F80007D5E900123068C0F80815C0F80D
:101E20000C25A968C0F82415206828B13068297BE2
:101E3000000B40B2FFF743FE012084F8220000208F
:101E400070BD0000180000203EB5074D2C68AD683D
:101E500000948DF80110019202958DF80230002255
:101E6000694600F015F83EBDA02F00003EB50025E4
:101E70000095069C8DF8011002958DF802300192B4
:101E80000CB1202200E00022694600F001F83EBDBE
:101E900030B40379064C03EB830304EBC3040068FE
:101EA00013460A460146204630BC00F01DBE000025
:101EB000180000202DE9F04105460079164F9046A4
:101EC00007EB40140E46E07E10B10820BDE8F0811B
:101ED000707F20772846FFF749FB5FEA08006060C3
:101EE0003169216003D0317F2846FFF735FC28791E
:101EF00007EB4010007F0028286801D0082100E08F
:101F00000421C0F800150020E0752076A07501219D
:101F1000E176A076DAE70000400000202DE9F047E6
:101F2000054600793F4E904606EB40140F46207F51
:101F300018B10846FFF72AFF30B1284600F074F8C0
:101F400020B11120BDE8F0871020FBE784F816804F
:101F5000A7600027A78228794FF0010806EB4014FC
:101F60003E46207F0028286825D04FF490794946C6
:101F700000F0D7FB4FF4AC7A5146286800F0D1FB53
:101F80002868A17DA268C0F84425C0F848152868D3
:101F9000C0F808806068F0B94946286800F0BCFBCA
:101FA00080465146286800F0B7FB58EA0001F3D09C
:101FB00058BBA7750FE04FF48E7A514600F0A0FB96
:101FC0002868C0F808802146286800F0ADFE6168E6
:101FD0004FF4807089B13046B4E75146286800F06C
:101FE0008AFB10B9A08A4845F7D1A08A484505D098
:101FF0002146286800F098FE00E08146A08AA17D75
:102000008842EAD3A08A484501D10F26D1E751463C
:10201000286800F070FB0028F9D02868C0F80C8010
:10202000C7E70000400000200079044901EB4010A0
:10203000807D002800D00120704700004000002073
:1020400070B5044600791149002601EB401520685F
:102050002A7FC0F80065686888B1207901EB4010DC
:10206000007F0028206801D0094901E008498C3927
:10207000C0F808132068FFF73EFDFFF715FD204666
:1020800000F06EFBEE766E6070BD00004000002038
:102090001003020070B541EA4201DDE904564FF039
:1020A000A04441EA830141EA052104EB800041EAB2
:1020B0000641C0F8001770BD70B541EA4201DDE984
:1020C00004564FF0A04441EA830141EA052104EBA4
:1020D000800041EA0641C0F8001770BD1CB5002120
:1020E00000910B4601220191FFF7D4FF1CBD1CB5E6
:1020F00000220B46009211460192FFF7CBFF1CBD58
:102100001CB5002100910B46012201911146FFF7F9
:10211000C1FF1CBD4FF0A04202EB8000D0F80027A9
:1021200022F44032C0F80027D0F8002742EA0141EB
:10213000C0F8001770474FF0A04201218140C2F85B
:102140000815704718B5084B6C4601441B6800938E
:1021500006E000BF54F82030D3F81035401C08C208
:102160008142F7D818BD0000AC2F0000034908B524
:102170000844002101600068009008BD0060004034
:1021800002494058012800D00020704700600040FC
:10219000004870470922000030B5184C054689B048
:1021A000207828B16078854202D1002009B030BD86
:1021B000202213496846FEF743F900208DF81400E9
:1021C000062000900820019005200390072002902F
:1021D0004FF0EB7006900948001DFFF731FF0DB17D
:1021E000002200E0074A05486946001DFFF762FE2D
:1021F0000028DBD1012020706570D6E704000020A4
:10220000B02F0000652D00002DE9F04FC1B00D008A
:102210004FF0000140914D984B991C46174601EB39
:10222000000B01D00A2000E00020804600F0FAFAFE
:1022300000287CD16E46BCB9409840AA3118284687
:1022400000F0CCFB002872D03846FEF70BF9C2280C
:1022500000D9C220054640982A4630443946FEF748
:10226000EFF84098284440904FF0200A409901EB45
:10227000080231320DEB01050DEB0206002002E0F1
:1022800005F801AB401C4045FAD300275C4508D354
:1022900005F801AB05F801AB05F801AB06F801AB99
:1022A0002DE04B98844202D24A98005D02E0211A48
:1022B0004C98405C2B46814602460121880022FA58
:1022C00000F000F00F00092801D9373000E030306D
:1022D000C1F1010C491E03F80C00EFD29D1C05F85A
:1022E00001ABFEF7A9F8016811F8090010F03E0FE4
:1022F00001D0484600E02E2006F8010B641C7F1C2C
:10230000102FC3D30D2030700A20707085F800A004
:102310004099684641444331409100F089FA30B118
:1023200000F080FA18B9002040905C459ED341B07F
:102330002046BDE8F08F2DE9F043C7B000251C46CC
:10234000904689464E9F459500F06CFA00287AD158
:10235000459805AE311845AA484600F03FFB0028D5
:1023600035D0072F27D2DFE807F004121B35424F84
:102370005D004046FEF776F8054645982918FF2986
:1023800019D830442A464146FEF75AF813E04598DA
:102390002368C0F5807130444246FEF7C1FC09E075
:1023A0006068009045982368C0F5807130444246CB
:1023B000FEF7B6FC0546294645A8FFF733F94599CF
:1023C00078B3B1F5807F3ED805A800F031FA47B068
:1023D000BDE8F083D4E90101CDE900014598236807
:1023E000C0F5807130444246FEF79AFCE2E7201DBA
:1023F00007C88DE8070045982368C0F58071304410
:102400004246FEF78DFCD5E7201D0FC88DE80F0072
:1024100045982368C0F5807130444246FEF780FC41
:10242000C8E710E004F1080001AD0FC885E80F000F
:102430006068009045982368C0F58071304442463A
:10244000FEF76EFCB6E70020C1E7000000487047C9
:10245000372300000120FFF79FBE00002DE9F04F59
:1024600087B0FFF719F918B1002007B0BDE8F08F69
:10247000454ED6E9014704EA070006EB8000A14675
:10248000641CC5680CE000BFC5F3891000EB9550D3
:10249000044404EA070006EB8000A146C568641CFA
:1024A000A807F1D005F003004FF0000B022805D07B
:1024B000AA0A01A8C5F38313002153E004EA070028
:1024C00006EB800004F1010A0AEA0704C268381B1F
:1024D00080004FEA9558001DC5F38913804521D926
:1024E00029490C3138B106EB840400F0FF0CA8EB4D
:1024F00000000C3404E00C46002108F0FF0C0846F4
:10250000C0B2CDE90210CDE9004CD6F81444C5F3B1
:10251000C2005946A047404511D108F103080AEB13
:1025200098042AE0002106EB84000C300090CDE9ED
:1025300001810391C5F3C200D6F81444EAE760F3C1
:102540008F1509EA070006EB8000C56016E000BFA2
:1025500004EA070C06EB8C0C491CDCF80CC040F8B4
:1025600004CB641C9942F3D3C5F3C2000093D6F8A0
:10257000105401AB5946A84700B17460FFF78CF8BE
:1025800080F0010071E70000A8010020034AFF234A
:10259000936000231360536000F088B8A801002006
:1025A0002DE9F8430F4F8846044600256946284622
:1025B000BE68FFF741F8002812D00B4800214068A0
:1025C00061F38200009964F3C50001EA060265F335
:1025D000891007EB820268F39F20491CD0600091AC
:1025E000BDE8F883A8010020D02F00002DE9F843B2
:1025F000124D884604460127914669463846AE6822
:10260000FFF71AF8002817D00D480021806861F301
:102610008200009964F3C50001EA060267F389109D
:1026200005EB820268F39F20491CD0600091314085
:1026300005EB8101C1F80C90BDE8F883A8010020EA
:10264000D02F00002DE9F84F164C88460646022789
:102650009A46914669463846A568FEF7EDFF002880
:102660001ED01148C168002060F38201009866F313
:10267000C50100EA050267F3891104EB820268F3E1
:102680009F21401CD16000EA050204EB8202401C3D
:10269000C2F80C900090284004EB8000C0F80CA019
:1026A000BDE8F88FA8010020D02F0000024A02F5F3
:1026B000826203C270470000A801002070B5064680
:1026C0000020FFF769FD040008D1FFF761FD054612
:1026D000FFF7BCFE32462946FFF758FF204670BD83
:1026E0004058002800D00120704708B50022425011
:1026F0004058009008BD4058002800D00120704785
:1027000008B5002242504058009008BDD0F804039C
:10271000084000D0012070474058002800D0012018
:10272000704708B5002242504058009008BD000094
:102730000449084490F92400082801DB012070476F
:1027400000207047600000200449084490F92400EC
:10275000082801D201207047002070476000002047
:1027600070B5034600791B4901EB40101968027FE0
:102770004FF0FF30002AD1F80C25D1F81465D1F8BC
:102780000855D1F8104504D0C1F80C05C1F814055E
:1027900003E0C1F81405C1F80C051968C1F8080573
:1027A000C1F81005501C02D01046FFF797FC701CB2
:1027B00002D03046FFF792FC601C02D02046FFF7A3
:1027C0008DFC681C04D02846BDE87040FFF786BC2D
:1027D00070BD00004000002070B50546C87D0C4665
:1027E00000284FF4847128460AD0FFF789FFD5F8F6
:1027F0001805627EE1688854607E401C607670BD7A
:10280000FFF77EFFD5F8180570BD1FB501238DF8C1
:1028100000308DF808100192D0E900126846904708
:102820001FBD00000148FFF7FFBB000008000020AB
:1028300070B50D460A46014601240648FDF700FE24
:10284000EAB204490448FFF769FB00B100242046BE
:1028500070BD0000A80000200800002010B507206F
:102860002DED028B84B002AA8DF8080001200346EA
:1028700000905A213448FFF7F9FA08B1FEF754FEE8
:10288000022301AA5A213048FFF7DEFA60B12FA1D6
:102890000320FFF785FE00BFFFF7E0FD0028FBD116
:1028A00004B0BDEC028B10BD5A2230A10320FFF70B
:1028B0009DFE00BFFFF7D2FD0028FBD1BDF804004C
:1028C000FDF701FF9FED351B53EC112BFDF778FE53
:1028D0009FED341B53EC112BFDF76CFE9FED330B7A
:1028E00041EC180B53EC102BFDF71AFF51EC180BB1
:1028F00008D2FDF7F5FEFDF7D5FE53EC182BFDF7DA
:102900005CFE07E0FDF7ECFEFDF7CCFE53EC182B68
:10291000FDF750FE9FED271B53EC112BFDF750FEEA
:10292000FDF7DEFE044651EC180BFDF7D9FE02461A
:10293000234622A10320FFF785FE00BFFFF78EFD8F
:102940000028FBD1ACE70000882F00004150503A2E
:10295000494E464F3A4E6F2064657669636520772D
:10296000617320666F756E642E0D0A004150503AF7
:10297000494E464F3A54574920646576696365204D
:102980006465746563746564206174206164647255
:1029900065737320307825782E0D0A007B14AE47BE
:1029A000E17A943F66666666661271400000000038
:1029B0000000000000000000000059404150503A63
:1029C000494E464F3A4461746120726561643A250C
:1029D000642E253032640D0A0000000010B5144644
:1029E00002004FF001000CD00846136806A24FF415
:1029F0008071FEF795F901462046BDE81040FEF7CC
:102A000011BE0021216010BD5B253038645D0000DF
:102A10002DE9F041044640F20C602168890001F183
:102A2000A041C1F800076168890001F1A041C1F827
:102A300000072068FFF77FFB6068FFF77CFB2168D9
:102A400040F20D60890001F1A041C1F80007616802
:102A5000890001F1A041C1F800070420FEF7DEFF64
:102A600000274FF0A04601252179D6F81005C8406F
:102A700010F0010F02D0002F1DD010E0217805FAD0
:102A800001F0C6F80C050420FEF7C8FF2068FFF728
:102A900052FB0420FEF7C2FF7F1C092FE4DB2079E4
:102AA0008540C6F80C550420FEF7B8FF6068BDE805
:102AB000F041FFF740BBBDE8F08100001FB5094BB6
:102AC0000FCB8DE80F00074800231A4669460838E7
:102AD000FFF774F908B1FEF727FD02480838FFF741
:102AE0005DF91FBD902F00002DE9F05F06461F46DF
:102AF00015460C464FF0000A4FF0080B4FF4827950
:102B00005068FFF73BF900287ED04FF0FF30C4F843
:102B1000080396F8240028B1B068C4F80403112013
:102B2000BDE8F09F780703D4F80601D4012000E047
:102B3000002086F8240095E8070006F10C0383E8DE
:102B40000700C7F3001086F825006878C4F88805E8
:102B50004FF482712046FFF7C8FD4FF49271204672
:102B6000FFF7C3FDF8074FF0010800D04046C4F856
:102B70005005B80701D5404600E00020C4F84005E4
:102B8000287800286CD001287DD002284ED0032858
:102B900014D04FF0070A380704D42878032801D04E
:102BA00044F80B80306800286ED0780702D54FF4C7
:102BB0000070B060B068C4F80403B0E0A868FFF724
:102BC000DDF808B34FF48070C4F80002A978686893
:102BD000C4F84405C4F848154FF4A8712046FFF71F
:102BE00084FD4FF4B0712046FFF77FFD4FF4A471D0
:102BF0002046FFF77AFDC4F82080C4F8088000BFA3
:102C00004FF4A871204600E028E0FFF769FD002896
:102C1000F6D04FF4A8712046FFF767FDE878A96861
:102C2000C4F84415C4F848053E4815E0A87869681A
:102C3000C4F84415C4F84805A868FFF79FF868B1C0
:102C4000E878A968C4F83415C4F838054FF48450FE
:102C5000C4F8000240F20220B0609CE710205FE759
:102C6000A8786968C4F84415C4F84805B8060FD5B3
:102C70004FF48070C4F800022A48B0604FF4A47981
:102C80004946204601E00CE01BE0FFF72EFD05E081
:102C90004FF40070C4F80002801CB060C4F82080BB
:102CA00079E7A8786968C4F83415C4F838054FF492
:102CB0008050C4F8000240F20220B0604FF0000BD8
:102CC000ECE745464FF482774FF492780BE04146AB
:102CD0002046FFF705FD30B141462046FFF705FDD0
:102CE00025626561B94649462046FFF7F9FC002890
:102CF000EDD0D4F8C404C4F8C404002186F824102C
:102D000068B10321C20701D04FF40241820701D507
:102D100048F20121400701D548F202218A46504677
:102D2000FEE600000002040070B50C4605464FF4B4
:102D30008E71FFF7E5FCA18AA068415CA08A401C67
:102D4000A082C5F81C1570BD1FB500228DF80020AB
:102D50008DF80810816801918275D0E900126846EB
:102D600090471FBD0078012801D101498870704744
:102D7000040000202DE9FF470C4605464FF4007182
:102D8000FFF7C4FC01274FF40178002618B34FF475
:102D9000927949462846FFF7AEFCE0B149462846FD
:102DA000FFF7AEFCC5F80883A07E00B96F60022073
:102DB0008DF80000D5F88004C5F880040390E07D0C
:102DC0008DF80800E0680190E6752676D4E90012D7
:102DD0006846904727E004212846FFF797FC10B388
:102DE0004FF484712846FFF786FCE0B1214628465F
:102DF000FFF7F2FCE07D617E884214D1207E38B17D
:102E0000617EE268E0752069E0602676667607E01C
:102E1000A07E00B96F60C5F80883E675617EE26840
:102E20002046FFF7F2FC4FF48E7841462846FFF724
:102E300062FC88B1A08AA17D884204D2214628463E
:102E4000FFF772FF08E041462846FFF759FCA17DD5
:102E500011B12046FFF778FF4FF4A278414628468B
:102E6000FFF749FC002812D041462846FFF748FCEE
:102E7000A07E00B12F60E07D002808D0E675617E5D
:102E8000E26804B02046BDE8F047FFF7BEBCBDE8ED
:102E9000FF872DE9FF410C464FF4927705463946EE
:102EA000FFF73AFC0026C0B139462846FFF739FC47
:102EB00002208DF80000D5F88004C5F88004039046
:102EC000D5F83C058DF80800E0680190E675267697
:102ED000D4E900126846904724E04FF488773946D9
:102EE0002846FFF719FCE8B139462846FFF719FCD8
:102EF000D5F83C05C1B2E07D884213D1207E60B197
:102F0000E268D5F8000220F02000C5F80002207E1B
:102F1000E0752069E060267601E0E675E26820460B
:102F2000FFF773FC4FF4A27739462846FFF7F4FB0E
:102F300068B139462846FFF7F4FBE07D38B1E67505
:102F4000D5F83C05E268C1B22046FFF75EFC4FF4BD
:102F5000907631462846FFF7DFFB00280FD0314638
:102F60002846FFF7DEFBA07D002808D0D5F84C05E9
:102F700004B0C1B22046BDE8F041FFF7E5BEBDE8B0
:102F8000FF8100000200000100300040000100004D
:102F90001B0000001A000000000098010200000061
:102FA00001000000000000000000000000000050D0
:102FB000FFFFFFFFFFFFFFFFFFFFFFFFFFFFFFFF21
:102FC00000000000000000000000D6010701000022
:102FD00029000000010000000100000001000000C5
:102FE00001000000010000000100000001000000DD
:102FF000020000000040404040404040404041410D
:1030000041414140404040404040404040404040BD
:103010004040404040050202020202020202020257
:103020000202020202202020202020202020200254
:1030300002020202020290909090909010101010E4
:103040001010101010101010101010101010101080
:103050000202020202028888888888880808080814
:1030600008080808080808080808080808080808E0
:103070000202020240000000F52F00004F76657248
:10308000666C6F770D0A0000A83000000000002079
:1030900018000000500D0000C03000001800002093
:1030A000A8250000600D00000000000000000000E6
:1030B00000200040000000007C3000000090D003A1
:0400000500000401F2
:00000001FF
